{
  "_format": "hh-sol-artifact-1",
  "contractName": "SmoothApe",
  "sourceName": "contracts/SmoothApe.sol",
  "abi": [
    {
      "inputs": [
        {
          "internalType": "string",
          "name": "_name",
          "type": "string"
        },
        {
          "internalType": "string",
          "name": "_symbol",
          "type": "string"
        },
        {
          "internalType": "string",
          "name": "_initBaseURI",
          "type": "string"
        },
        {
          "internalType": "string",
          "name": "_initNotRevealedUri",
          "type": "string"
        }
      ],
      "stateMutability": "nonpayable",
      "type": "constructor"
    },
    {
      "anonymous": false,
      "inputs": [
        {
          "indexed": true,
          "internalType": "address",
          "name": "owner",
          "type": "address"
        },
        {
          "indexed": true,
          "internalType": "address",
          "name": "approved",
          "type": "address"
        },
        {
          "indexed": true,
          "internalType": "uint256",
          "name": "tokenId",
          "type": "uint256"
        }
      ],
      "name": "Approval",
      "type": "event"
    },
    {
      "anonymous": false,
      "inputs": [
        {
          "indexed": true,
          "internalType": "address",
          "name": "owner",
          "type": "address"
        },
        {
          "indexed": true,
          "internalType": "address",
          "name": "operator",
          "type": "address"
        },
        {
          "indexed": false,
          "internalType": "bool",
          "name": "approved",
          "type": "bool"
        }
      ],
      "name": "ApprovalForAll",
      "type": "event"
    },
    {
      "anonymous": false,
      "inputs": [
        {
          "indexed": false,
          "internalType": "address",
          "name": "sender",
          "type": "address"
        },
        {
          "indexed": false,
          "internalType": "uint256",
          "name": "tokenId",
          "type": "uint256"
        }
      ],
      "name": "EmitNFT",
      "type": "event"
    },
    {
      "anonymous": false,
      "inputs": [
        {
          "indexed": true,
          "internalType": "address",
          "name": "previousOwner",
          "type": "address"
        },
        {
          "indexed": true,
          "internalType": "address",
          "name": "newOwner",
          "type": "address"
        }
      ],
      "name": "OwnershipTransferred",
      "type": "event"
    },
    {
      "anonymous": false,
      "inputs": [
        {
          "indexed": true,
          "internalType": "address",
          "name": "from",
          "type": "address"
        },
        {
          "indexed": true,
          "internalType": "address",
          "name": "to",
          "type": "address"
        },
        {
          "indexed": true,
          "internalType": "uint256",
          "name": "tokenId",
          "type": "uint256"
        }
      ],
      "name": "Transfer",
      "type": "event"
    },
    {
      "inputs": [
        {
          "internalType": "address",
          "name": "to",
          "type": "address"
        },
        {
          "internalType": "uint256",
          "name": "tokenId",
          "type": "uint256"
        }
      ],
      "name": "approve",
      "outputs": [],
      "stateMutability": "nonpayable",
      "type": "function"
    },
    {
      "inputs": [
        {
          "internalType": "address",
          "name": "owner",
          "type": "address"
        }
      ],
      "name": "balanceOf",
      "outputs": [
        {
          "internalType": "uint256",
          "name": "",
          "type": "uint256"
        }
      ],
      "stateMutability": "view",
      "type": "function"
    },
    {
      "inputs": [],
      "name": "baseExtension",
      "outputs": [
        {
          "internalType": "string",
          "name": "",
          "type": "string"
        }
      ],
      "stateMutability": "view",
      "type": "function"
    },
    {
      "inputs": [],
      "name": "baseURI",
      "outputs": [
        {
          "internalType": "string",
          "name": "",
          "type": "string"
        }
      ],
      "stateMutability": "view",
      "type": "function"
    },
    {
      "inputs": [],
      "name": "costPrice",
      "outputs": [
        {
          "internalType": "uint256",
          "name": "",
          "type": "uint256"
        }
      ],
      "stateMutability": "view",
      "type": "function"
    },
    {
      "inputs": [
        {
          "internalType": "uint256",
          "name": "tokenId",
          "type": "uint256"
        }
      ],
      "name": "getApproved",
      "outputs": [
        {
          "internalType": "address",
          "name": "",
          "type": "address"
        }
      ],
      "stateMutability": "view",
      "type": "function"
    },
    {
      "inputs": [],
      "name": "getCostPrice",
      "outputs": [
        {
          "internalType": "uint256",
          "name": "",
          "type": "uint256"
        }
      ],
      "stateMutability": "view",
      "type": "function"
    },
    {
      "inputs": [
        {
          "internalType": "address",
          "name": "owner",
          "type": "address"
        },
        {
          "internalType": "address",
          "name": "operator",
          "type": "address"
        }
      ],
      "name": "isApprovedForAll",
      "outputs": [
        {
          "internalType": "bool",
          "name": "",
          "type": "bool"
        }
      ],
      "stateMutability": "view",
      "type": "function"
    },
    {
      "inputs": [],
      "name": "maxMintNft",
      "outputs": [
        {
          "internalType": "uint256",
          "name": "",
          "type": "uint256"
        }
      ],
      "stateMutability": "view",
      "type": "function"
    },
    {
      "inputs": [],
      "name": "maxSupply",
      "outputs": [
        {
          "internalType": "uint256",
          "name": "",
          "type": "uint256"
        }
      ],
      "stateMutability": "view",
      "type": "function"
    },
    {
      "inputs": [],
      "name": "mintApe",
      "outputs": [],
      "stateMutability": "payable",
      "type": "function"
    },
    {
      "inputs": [
        {
          "internalType": "address",
          "name": "_to",
          "type": "address"
        },
        {
          "internalType": "uint256",
          "name": "_mintAmount",
          "type": "uint256"
        }
      ],
      "name": "mintApeTo",
      "outputs": [],
      "stateMutability": "nonpayable",
      "type": "function"
    },
    {
      "inputs": [],
      "name": "name",
      "outputs": [
        {
          "internalType": "string",
          "name": "",
          "type": "string"
        }
      ],
      "stateMutability": "view",
      "type": "function"
    },
    {
      "inputs": [],
      "name": "notRevealedUri",
      "outputs": [
        {
          "internalType": "string",
          "name": "",
          "type": "string"
        }
      ],
      "stateMutability": "view",
      "type": "function"
    },
    {
      "inputs": [],
      "name": "owner",
      "outputs": [
        {
          "internalType": "address",
          "name": "",
          "type": "address"
        }
      ],
      "stateMutability": "view",
      "type": "function"
    },
    {
      "inputs": [
        {
          "internalType": "uint256",
          "name": "tokenId",
          "type": "uint256"
        }
      ],
      "name": "ownerOf",
      "outputs": [
        {
          "internalType": "address",
          "name": "",
          "type": "address"
        }
      ],
      "stateMutability": "view",
      "type": "function"
    },
    {
      "inputs": [],
      "name": "pause",
      "outputs": [],
      "stateMutability": "nonpayable",
      "type": "function"
    },
    {
      "inputs": [],
      "name": "paused",
      "outputs": [
        {
          "internalType": "bool",
          "name": "",
          "type": "bool"
        }
      ],
      "stateMutability": "view",
      "type": "function"
    },
    {
      "inputs": [],
      "name": "preSaleTokenPrice",
      "outputs": [
        {
          "internalType": "uint256",
          "name": "",
          "type": "uint256"
        }
      ],
      "stateMutability": "view",
      "type": "function"
    },
    {
      "inputs": [],
      "name": "presale",
      "outputs": [
        {
          "internalType": "bool",
          "name": "",
          "type": "bool"
        }
      ],
      "stateMutability": "view",
      "type": "function"
    },
    {
      "inputs": [],
      "name": "presaleEnd",
      "outputs": [
        {
          "internalType": "uint256",
          "name": "",
          "type": "uint256"
        }
      ],
      "stateMutability": "view",
      "type": "function"
    },
    {
      "inputs": [],
      "name": "renounceOwnership",
      "outputs": [],
      "stateMutability": "nonpayable",
      "type": "function"
    },
    {
      "inputs": [
        {
          "internalType": "bool",
          "name": "_reveal",
          "type": "bool"
        }
      ],
      "name": "reveal",
      "outputs": [],
      "stateMutability": "nonpayable",
      "type": "function"
    },
    {
      "inputs": [],
      "name": "revealed",
      "outputs": [
        {
          "internalType": "bool",
          "name": "",
          "type": "bool"
        }
      ],
      "stateMutability": "view",
      "type": "function"
    },
    {
      "inputs": [
        {
          "internalType": "uint256",
          "name": "",
          "type": "uint256"
        },
        {
          "internalType": "uint256",
          "name": "value",
          "type": "uint256"
        }
      ],
      "name": "royaltyInfo",
      "outputs": [
        {
          "internalType": "address",
          "name": "receiver",
          "type": "address"
        },
        {
          "internalType": "uint256",
          "name": "royaltyAmount",
          "type": "uint256"
        }
      ],
      "stateMutability": "view",
      "type": "function"
    },
    {
      "inputs": [
        {
          "internalType": "address",
          "name": "from",
          "type": "address"
        },
        {
          "internalType": "address",
          "name": "to",
          "type": "address"
        },
        {
          "internalType": "uint256",
          "name": "tokenId",
          "type": "uint256"
        }
      ],
      "name": "safeTransferFrom",
      "outputs": [],
      "stateMutability": "nonpayable",
      "type": "function"
    },
    {
      "inputs": [
        {
          "internalType": "address",
          "name": "from",
          "type": "address"
        },
        {
          "internalType": "address",
          "name": "to",
          "type": "address"
        },
        {
          "internalType": "uint256",
          "name": "tokenId",
          "type": "uint256"
        },
        {
          "internalType": "bytes",
          "name": "_data",
          "type": "bytes"
        }
      ],
      "name": "safeTransferFrom",
      "outputs": [],
      "stateMutability": "nonpayable",
      "type": "function"
    },
    {
      "inputs": [
        {
          "internalType": "address",
          "name": "operator",
          "type": "address"
        },
        {
          "internalType": "bool",
          "name": "approved",
          "type": "bool"
        }
      ],
      "name": "setApprovalForAll",
      "outputs": [],
      "stateMutability": "nonpayable",
      "type": "function"
    },
    {
      "inputs": [
        {
          "internalType": "string",
          "name": "_newBaseURI",
          "type": "string"
        }
      ],
      "name": "setBaseURI",
      "outputs": [],
      "stateMutability": "nonpayable",
      "type": "function"
    },
    {
      "inputs": [
        {
          "internalType": "uint256",
          "name": "_preSaleTokenPrice",
          "type": "uint256"
        },
        {
          "internalType": "uint256",
          "name": "_publicTokenPrice",
          "type": "uint256"
        }
      ],
      "name": "setCost",
      "outputs": [],
      "stateMutability": "nonpayable",
      "type": "function"
    },
    {
      "inputs": [
        {
          "internalType": "string",
          "name": "_newNotRevealedUri",
          "type": "string"
        }
      ],
      "name": "setNotRevealedUri",
      "outputs": [],
      "stateMutability": "nonpayable",
      "type": "function"
    },
    {
      "inputs": [
        {
          "internalType": "bool",
          "name": "_presale",
          "type": "bool"
        }
      ],
      "name": "setPresale",
      "outputs": [],
      "stateMutability": "nonpayable",
      "type": "function"
    },
    {
      "inputs": [
        {
          "internalType": "address",
          "name": "recipient",
          "type": "address"
        },
        {
          "internalType": "uint256",
          "name": "value",
          "type": "uint256"
        }
      ],
      "name": "setRoyalties",
      "outputs": [],
      "stateMutability": "nonpayable",
      "type": "function"
    },
    {
      "inputs": [
        {
          "internalType": "uint256",
          "name": "_tokenId",
          "type": "uint256"
        },
        {
          "internalType": "string",
          "name": "_tokenURI",
          "type": "string"
        }
      ],
      "name": "setTokenURI",
      "outputs": [],
      "stateMutability": "nonpayable",
      "type": "function"
    },
    {
      "inputs": [
        {
          "internalType": "bytes4",
          "name": "interfaceId",
          "type": "bytes4"
        }
      ],
      "name": "supportsInterface",
      "outputs": [
        {
          "internalType": "bool",
          "name": "",
          "type": "bool"
        }
      ],
      "stateMutability": "view",
      "type": "function"
    },
    {
      "inputs": [],
      "name": "symbol",
      "outputs": [
        {
          "internalType": "string",
          "name": "",
          "type": "string"
        }
      ],
      "stateMutability": "view",
      "type": "function"
    },
    {
      "inputs": [
        {
          "internalType": "uint256",
          "name": "tokenId",
          "type": "uint256"
        }
      ],
      "name": "tokenURI",
      "outputs": [
        {
          "internalType": "string",
          "name": "",
          "type": "string"
        }
      ],
      "stateMutability": "view",
      "type": "function"
    },
    {
      "inputs": [
        {
          "internalType": "address",
          "name": "from",
          "type": "address"
        },
        {
          "internalType": "address",
          "name": "to",
          "type": "address"
        },
        {
          "internalType": "uint256",
          "name": "tokenId",
          "type": "uint256"
        }
      ],
      "name": "transferFrom",
      "outputs": [],
      "stateMutability": "nonpayable",
      "type": "function"
    },
    {
      "inputs": [
        {
          "internalType": "address",
          "name": "newOwner",
          "type": "address"
        }
      ],
      "name": "transferOwnership",
      "outputs": [],
      "stateMutability": "nonpayable",
      "type": "function"
    }
  ],
  "bytecode": "0x608060405266d529ae9e860000600a5567011c37937e080000600b55612710600c556040518060400160405280600581526020017f2e6a736f6e000000000000000000000000000000000000000000000000000000815250600f90805190602001906200006e929190620003cb565b506000601160006101000a81548160ff0219169083151502179055506001601160016101000a81548160ff0219169083151502179055506000601160026101000a81548160ff021916908315150217905550635cb7e4e3601255348015620000d557600080fd5b5060405162004e6238038062004e628339818101604052810190620000fb9190620004ed565b8383816000908051906020019062000115929190620003cb565b5080600190805190602001906200012e929190620003cb565b50505062000151620001456200017d60201b60201c565b6200018560201b60201c565b62000162826200024b60201b60201c565b6200017381620002f660201b60201c565b50505050620007b0565b600033905090565b6000600760009054906101000a900473ffffffffffffffffffffffffffffffffffffffff16905081600760006101000a81548173ffffffffffffffffffffffffffffffffffffffff021916908373ffffffffffffffffffffffffffffffffffffffff1602179055508173ffffffffffffffffffffffffffffffffffffffff168173ffffffffffffffffffffffffffffffffffffffff167f8be0079c531659141344cd1fd0a4f28419497f9722a3daafe3b4186f6b6457e060405160405180910390a35050565b6200025b6200017d60201b60201c565b73ffffffffffffffffffffffffffffffffffffffff1662000281620003a160201b60201c565b73ffffffffffffffffffffffffffffffffffffffff1614620002da576040517f08c379a0000000000000000000000000000000000000000000000000000000008152600401620002d190620005e4565b60405180910390fd5b80600e9080519060200190620002f2929190620003cb565b5050565b620003066200017d60201b60201c565b73ffffffffffffffffffffffffffffffffffffffff166200032c620003a160201b60201c565b73ffffffffffffffffffffffffffffffffffffffff161462000385576040517f08c379a00000000000000000000000000000000000000000000000000000000081526004016200037c90620005e4565b60405180910390fd5b80601090805190602001906200039d929190620003cb565b5050565b6000600760009054906101000a900473ffffffffffffffffffffffffffffffffffffffff16905090565b828054620003d990620006ac565b90600052602060002090601f016020900481019282620003fd576000855562000449565b82601f106200041857805160ff191683800117855562000449565b8280016001018555821562000449579182015b82811115620004485782518255916020019190600101906200042b565b5b5090506200045891906200045c565b5090565b5b80821115620004775760008160009055506001016200045d565b5090565b6000620004926200048c846200062f565b62000606565b905082815260208101848484011115620004ab57600080fd5b620004b884828562000676565b509392505050565b600082601f830112620004d257600080fd5b8151620004e48482602086016200047b565b91505092915050565b600080600080608085870312156200050457600080fd5b600085015167ffffffffffffffff8111156200051f57600080fd5b6200052d87828801620004c0565b945050602085015167ffffffffffffffff8111156200054b57600080fd5b6200055987828801620004c0565b935050604085015167ffffffffffffffff8111156200057757600080fd5b6200058587828801620004c0565b925050606085015167ffffffffffffffff811115620005a357600080fd5b620005b187828801620004c0565b91505092959194509250565b6000620005cc60208362000665565b9150620005d98262000787565b602082019050919050565b60006020820190508181036000830152620005ff81620005bd565b9050919050565b60006200061262000625565b9050620006208282620006e2565b919050565b6000604051905090565b600067ffffffffffffffff8211156200064d576200064c62000747565b5b620006588262000776565b9050602081019050919050565b600082825260208201905092915050565b60005b838110156200069657808201518184015260208101905062000679565b83811115620006a6576000848401525b50505050565b60006002820490506001821680620006c557607f821691505b60208210811415620006dc57620006db62000718565b5b50919050565b620006ed8262000776565b810181811067ffffffffffffffff821117156200070f576200070e62000747565b5b80604052505050565b7f4e487b7100000000000000000000000000000000000000000000000000000000600052602260045260246000fd5b7f4e487b7100000000000000000000000000000000000000000000000000000000600052604160045260246000fd5b6000601f19601f8301169050919050565b7f4f776e61626c653a2063616c6c6572206973206e6f7420746865206f776e6572600082015250565b6146a280620007c06000396000f3fe6080604052600436106102305760003560e01c80637696e0881161012e578063b88d4fde116100ab578063c87b56dd1161006f578063c87b56dd146107e3578063d5abeb0114610820578063e985e9c51461084b578063f2fde38b14610888578063fdea8e0b146108b157610230565b8063b88d4fde14610712578063c15830191461073b578063c17ecd1214610766578063c54e73e31461078f578063c6682862146107b857610230565b8063940cd05b116100f2578063940cd05b1461066257806395d89b411461068b578063a22cb465146106b6578063a2592a55146106df578063b6d3d965146106e957610230565b80637696e088146105a35780637ed0802b146105cc5780638456cb59146105f75780638c7ea24b1461060e5780638da5cb5b1461063757610230565b8063389cc3bc116101bc5780636352211e116101805780636352211e146104bc5780636c0360eb146104f957806370a0823114610524578063715018a6146105615780637259bce31461057857610230565b8063389cc3bc146103e957806342842e0e14610414578063518302271461043d57806355f804b3146104685780635c975abb1461049157610230565b8063095ea7b311610203578063095ea7b314610305578063162094c41461032e578063229f3e291461035757806323b872dd146103825780632a55205a146103ab57610230565b806301ffc9a71461023557806306fdde0314610272578063081812fc1461029d578063081c8c44146102da575b600080fd5b34801561024157600080fd5b5061025c6004803603810190610257919061312f565b6108dc565b6040516102699190613823565b60405180910390f35b34801561027e57600080fd5b506102876108ee565b604051610294919061383e565b60405180910390f35b3480156102a957600080fd5b506102c460048036038101906102bf91906131c2565b610980565b6040516102d19190613793565b60405180910390f35b3480156102e657600080fd5b506102ef610a05565b6040516102fc919061383e565b60405180910390f35b34801561031157600080fd5b5061032c600480360381019061032791906130ca565b610a93565b005b34801561033a57600080fd5b50610355600480360381019061035091906131eb565b610bab565b005b34801561036357600080fd5b5061036c610c35565b6040516103799190613b40565b60405180910390f35b34801561038e57600080fd5b506103a960048036038101906103a49190612fc4565b610c3b565b005b3480156103b757600080fd5b506103d260048036038101906103cd919061323f565b610c9b565b6040516103e09291906137fa565b60405180910390f35b3480156103f557600080fd5b506103fe610d5b565b60405161040b9190613b40565b60405180910390f35b34801561042057600080fd5b5061043b60048036038101906104369190612fc4565b610d61565b005b34801561044957600080fd5b50610452610d81565b60405161045f9190613823565b60405180910390f35b34801561047457600080fd5b5061048f600480360381019061048a9190613181565b610d94565b005b34801561049d57600080fd5b506104a6610e2a565b6040516104b39190613823565b60405180910390f35b3480156104c857600080fd5b506104e360048036038101906104de91906131c2565b610e3d565b6040516104f09190613793565b60405180910390f35b34801561050557600080fd5b5061050e610eef565b60405161051b919061383e565b60405180910390f35b34801561053057600080fd5b5061054b60048036038101906105469190612f5f565b610f7d565b6040516105589190613b40565b60405180910390f35b34801561056d57600080fd5b50610576611035565b005b34801561058457600080fd5b5061058d6110bd565b60405161059a9190613b40565b60405180910390f35b3480156105af57600080fd5b506105ca60048036038101906105c5919061323f565b6110c3565b005b3480156105d857600080fd5b506105e1611151565b6040516105ee9190613b40565b60405180910390f35b34801561060357600080fd5b5061060c611157565b005b34801561061a57600080fd5b50610635600480360381019061063091906130ca565b6111f0565b005b34801561064357600080fd5b5061064c61127a565b6040516106599190613793565b60405180910390f35b34801561066e57600080fd5b5061068960048036038101906106849190613106565b6112a4565b005b34801561069757600080fd5b506106a061133d565b6040516106ad919061383e565b60405180910390f35b3480156106c257600080fd5b506106dd60048036038101906106d8919061308e565b6113cf565b005b6106e76113e5565b005b3480156106f557600080fd5b50610710600480360381019061070b91906130ca565b6115dd565b005b34801561071e57600080fd5b5061073960048036038101906107349190613013565b61177a565b005b34801561074757600080fd5b506107506117dc565b60405161075d9190613b40565b60405180910390f35b34801561077257600080fd5b5061078d60048036038101906107889190613181565b6117e6565b005b34801561079b57600080fd5b506107b660048036038101906107b19190613106565b61187c565b005b3480156107c457600080fd5b506107cd611915565b6040516107da919061383e565b60405180910390f35b3480156107ef57600080fd5b5061080a600480360381019061080591906131c2565b6119a3565b604051610817919061383e565b60405180910390f35b34801561082c57600080fd5b50610835611b3f565b6040516108429190613b40565b60405180910390f35b34801561085757600080fd5b50610872600480360381019061086d9190612f88565b611b45565b60405161087f9190613823565b60405180910390f35b34801561089457600080fd5b506108af60048036038101906108aa9190612f5f565b611bd9565b005b3480156108bd57600080fd5b506108c6611cd1565b6040516108d39190613823565b60405180910390f35b60006108e782611ce4565b9050919050565b6060600080546108fd90613e05565b80601f016020809104026020016040519081016040528092919081815260200182805461092990613e05565b80156109765780601f1061094b57610100808354040283529160200191610976565b820191906000526020600020905b81548152906001019060200180831161095957829003601f168201915b5050505050905090565b600061098b82611d5e565b6109ca576040517f08c379a00000000000000000000000000000000000000000000000000000000081526004016109c190613a40565b60405180910390fd5b6004600083815260200190815260200160002060009054906101000a900473ffffffffffffffffffffffffffffffffffffffff169050919050565b60108054610a1290613e05565b80601f0160208091040260200160405190810160405280929190818152602001828054610a3e90613e05565b8015610a8b5780601f10610a6057610100808354040283529160200191610a8b565b820191906000526020600020905b815481529060010190602001808311610a6e57829003601f168201915b505050505081565b6000610a9e82610e3d565b90508073ffffffffffffffffffffffffffffffffffffffff168373ffffffffffffffffffffffffffffffffffffffff161415610b0f576040517f08c379a0000000000000000000000000000000000000000000000000000000008152600401610b0690613ac0565b60405180910390fd5b8073ffffffffffffffffffffffffffffffffffffffff16610b2e611dca565b73ffffffffffffffffffffffffffffffffffffffff161480610b5d5750610b5c81610b57611dca565b611b45565b5b610b9c576040517f08c379a0000000000000000000000000000000000000000000000000000000008152600401610b9390613980565b60405180910390fd5b610ba68383611dd2565b505050565b610bb3611dca565b73ffffffffffffffffffffffffffffffffffffffff16610bd161127a565b73ffffffffffffffffffffffffffffffffffffffff1614610c27576040517f08c379a0000000000000000000000000000000000000000000000000000000008152600401610c1e90613a80565b60405180910390fd5b610c318282611e8b565b5050565b60125481565b610c4c610c46611dca565b82611eff565b610c8b576040517f08c379a0000000000000000000000000000000000000000000000000000000008152600401610c8290613ae0565b60405180910390fd5b610c96838383611fdd565b505050565b600080600060086040518060400160405290816000820160009054906101000a900473ffffffffffffffffffffffffffffffffffffffff1673ffffffffffffffffffffffffffffffffffffffff1673ffffffffffffffffffffffffffffffffffffffff1681526020016000820160149054906101000a900462ffffff1662ffffff1662ffffff1681525050905080600001519250612710816020015162ffffff1685610d479190613cc1565b610d519190613c90565b9150509250929050565b600b5481565b610d7c8383836040518060200160405280600081525061177a565b505050565b601160019054906101000a900460ff1681565b610d9c611dca565b73ffffffffffffffffffffffffffffffffffffffff16610dba61127a565b73ffffffffffffffffffffffffffffffffffffffff1614610e10576040517f08c379a0000000000000000000000000000000000000000000000000000000008152600401610e0790613a80565b60405180910390fd5b80600e9080519060200190610e26929190612d83565b5050565b601160009054906101000a900460ff1681565b6000806002600084815260200190815260200160002060009054906101000a900473ffffffffffffffffffffffffffffffffffffffff169050600073ffffffffffffffffffffffffffffffffffffffff168173ffffffffffffffffffffffffffffffffffffffff161415610ee6576040517f08c379a0000000000000000000000000000000000000000000000000000000008152600401610edd906139c0565b60405180910390fd5b80915050919050565b600e8054610efc90613e05565b80601f0160208091040260200160405190810160405280929190818152602001828054610f2890613e05565b8015610f755780601f10610f4a57610100808354040283529160200191610f75565b820191906000526020600020905b815481529060010190602001808311610f5857829003601f168201915b505050505081565b60008073ffffffffffffffffffffffffffffffffffffffff168273ffffffffffffffffffffffffffffffffffffffff161415610fee576040517f08c379a0000000000000000000000000000000000000000000000000000000008152600401610fe5906139a0565b60405180910390fd5b600360008373ffffffffffffffffffffffffffffffffffffffff1673ffffffffffffffffffffffffffffffffffffffff168152602001908152602001600020549050919050565b61103d611dca565b73ffffffffffffffffffffffffffffffffffffffff1661105b61127a565b73ffffffffffffffffffffffffffffffffffffffff16146110b1576040517f08c379a00000000000000000000000000000000000000000000000000000000081526004016110a890613a80565b60405180910390fd5b6110bb6000612244565b565b600a5481565b6110cb611dca565b73ffffffffffffffffffffffffffffffffffffffff166110e961127a565b73ffffffffffffffffffffffffffffffffffffffff161461113f576040517f08c379a000000000000000000000000000000000000000000000000000000000815260040161113690613a80565b60405180910390fd5b81600a8190555080600b819055505050565b600d5481565b61115f611dca565b73ffffffffffffffffffffffffffffffffffffffff1661117d61127a565b73ffffffffffffffffffffffffffffffffffffffff16146111d3576040517f08c379a00000000000000000000000000000000000000000000000000000000081526004016111ca90613a80565b60405180910390fd5b6001601160006101000a81548160ff021916908315150217905550565b6111f8611dca565b73ffffffffffffffffffffffffffffffffffffffff1661121661127a565b73ffffffffffffffffffffffffffffffffffffffff161461126c576040517f08c379a000000000000000000000000000000000000000000000000000000000815260040161126390613a80565b60405180910390fd5b611276828261230a565b5050565b6000600760009054906101000a900473ffffffffffffffffffffffffffffffffffffffff16905090565b6112ac611dca565b73ffffffffffffffffffffffffffffffffffffffff166112ca61127a565b73ffffffffffffffffffffffffffffffffffffffff1614611320576040517f08c379a000000000000000000000000000000000000000000000000000000000815260040161131790613a80565b60405180910390fd5b80601160016101000a81548160ff02191690831515021790555050565b60606001805461134c90613e05565b80601f016020809104026020016040519081016040528092919081815260200182805461137890613e05565b80156113c55780601f1061139a576101008083540402835291602001916113c5565b820191906000526020600020905b8154815290600101906020018083116113a857829003601f168201915b5050505050905090565b6113e16113da611dca565b83836123f4565b5050565b60006113f16009612561565b9050601160009054906101000a900460ff1615611443576040517f08c379a000000000000000000000000000000000000000000000000000000000815260040161143a90613b00565b60405180910390fd5b61144b61127a565b73ffffffffffffffffffffffffffffffffffffffff163373ffffffffffffffffffffffffffffffffffffffff1614156114b9576040517f08c379a00000000000000000000000000000000000000000000000000000000081526004016114b090613a60565b60405180910390fd5b6012544210156114cd57600b54600a819055505b600b543410156114de600b5461256f565b6040516020016114ee9190613766565b6040516020818303038152906040529061153e576040517f08c379a0000000000000000000000000000000000000000000000000000000008152600401611535919061383e565b60405180910390fd5b5061154761127a565b73ffffffffffffffffffffffffffffffffffffffff166108fc349081150290604051600060405180830381858888f1935050505015801561158c573d6000803e3d6000fd5b507f010b29805dab42281100bcf572a75eefa28f55357f42f469d30e8bba4822cfe933826040516115be9291906137fa565b60405180910390a16115d0338261271c565b6115da600961273a565b50565b6115e5611dca565b73ffffffffffffffffffffffffffffffffffffffff1661160361127a565b73ffffffffffffffffffffffffffffffffffffffff1614611659576040517f08c379a000000000000000000000000000000000000000000000000000000000815260040161165090613a80565b60405180910390fd5b601160009054906101000a900460ff16156116a9576040517f08c379a00000000000000000000000000000000000000000000000000000000081526004016116a090613b00565b60405180910390fd5b600081116116ec576040517f08c379a00000000000000000000000000000000000000000000000000000000081526004016116e390613a00565b60405180910390fd5b600c54811115611731576040517f08c379a000000000000000000000000000000000000000000000000000000000815260040161172890613940565b60405180910390fd5b6000600190505b81811161177557600061174b6009612561565b9050611757848261271c565b611761600961273a565b50808061176d90613e68565b915050611738565b505050565b61178b611785611dca565b83611eff565b6117ca576040517f08c379a00000000000000000000000000000000000000000000000000000000081526004016117c190613ae0565b60405180910390fd5b6117d684848484612750565b50505050565b6000600b54905090565b6117ee611dca565b73ffffffffffffffffffffffffffffffffffffffff1661180c61127a565b73ffffffffffffffffffffffffffffffffffffffff1614611862576040517f08c379a000000000000000000000000000000000000000000000000000000000815260040161185990613a80565b60405180910390fd5b8060109080519060200190611878929190612d83565b5050565b611884611dca565b73ffffffffffffffffffffffffffffffffffffffff166118a261127a565b73ffffffffffffffffffffffffffffffffffffffff16146118f8576040517f08c379a00000000000000000000000000000000000000000000000000000000081526004016118ef90613a80565b60405180910390fd5b80601160026101000a81548160ff02191690831515021790555050565b600f805461192290613e05565b80601f016020809104026020016040519081016040528092919081815260200182805461194e90613e05565b801561199b5780601f106119705761010080835404028352916020019161199b565b820191906000526020600020905b81548152906001019060200180831161197e57829003601f168201915b505050505081565b60606119ae82611d5e565b6119ed576040517f08c379a00000000000000000000000000000000000000000000000000000000081526004016119e490613aa0565b60405180910390fd5b6119f76009612561565b8210611a38576040517f08c379a0000000000000000000000000000000000000000000000000000000008152600401611a2f90613b20565b60405180910390fd5b601160019054906101000a900460ff16611ade5760108054611a5990613e05565b80601f0160208091040260200160405190810160405280929190818152602001828054611a8590613e05565b8015611ad25780601f10611aa757610100808354040283529160200191611ad2565b820191906000526020600020905b815481529060010190602001808311611ab557829003601f168201915b50505050509050611b3a565b6000611ae86127ac565b90506000815111611b085760405180602001604052806000815250611b36565b80611b128461256f565b600f604051602001611b2693929190613735565b6040516020818303038152906040525b9150505b919050565b600c5481565b6000600560008473ffffffffffffffffffffffffffffffffffffffff1673ffffffffffffffffffffffffffffffffffffffff16815260200190815260200160002060008373ffffffffffffffffffffffffffffffffffffffff1673ffffffffffffffffffffffffffffffffffffffff16815260200190815260200160002060009054906101000a900460ff16905092915050565b611be1611dca565b73ffffffffffffffffffffffffffffffffffffffff16611bff61127a565b73ffffffffffffffffffffffffffffffffffffffff1614611c55576040517f08c379a0000000000000000000000000000000000000000000000000000000008152600401611c4c90613a80565b60405180910390fd5b600073ffffffffffffffffffffffffffffffffffffffff168173ffffffffffffffffffffffffffffffffffffffff161415611cc5576040517f08c379a0000000000000000000000000000000000000000000000000000000008152600401611cbc906138a0565b60405180910390fd5b611cce81612244565b50565b601160029054906101000a900460ff1681565b60007f2a55205a000000000000000000000000000000000000000000000000000000007bffffffffffffffffffffffffffffffffffffffffffffffffffffffff1916827bffffffffffffffffffffffffffffffffffffffffffffffffffffffff19161480611d575750611d568261283e565b5b9050919050565b60008073ffffffffffffffffffffffffffffffffffffffff166002600084815260200190815260200160002060009054906101000a900473ffffffffffffffffffffffffffffffffffffffff1673ffffffffffffffffffffffffffffffffffffffff1614159050919050565b600033905090565b816004600083815260200190815260200160002060006101000a81548173ffffffffffffffffffffffffffffffffffffffff021916908373ffffffffffffffffffffffffffffffffffffffff160217905550808273ffffffffffffffffffffffffffffffffffffffff16611e4583610e3d565b73ffffffffffffffffffffffffffffffffffffffff167f8c5be1e5ebec7d5bd14f71427d1e84f3dd0314c0f7b2291e5b200ac8c7c3b92560405160405180910390a45050565b611e9482611d5e565b611ed3576040517f08c379a0000000000000000000000000000000000000000000000000000000008152600401611eca906139e0565b60405180910390fd5b80600660008481526020019081526020016000209080519060200190611efa929190612d83565b505050565b6000611f0a82611d5e565b611f49576040517f08c379a0000000000000000000000000000000000000000000000000000000008152600401611f4090613960565b60405180910390fd5b6000611f5483610e3d565b90508073ffffffffffffffffffffffffffffffffffffffff168473ffffffffffffffffffffffffffffffffffffffff161480611fc357508373ffffffffffffffffffffffffffffffffffffffff16611fab84610980565b73ffffffffffffffffffffffffffffffffffffffff16145b80611fd45750611fd38185611b45565b5b91505092915050565b8273ffffffffffffffffffffffffffffffffffffffff16611ffd82610e3d565b73ffffffffffffffffffffffffffffffffffffffff1614612053576040517f08c379a000000000000000000000000000000000000000000000000000000000815260040161204a906138c0565b60405180910390fd5b600073ffffffffffffffffffffffffffffffffffffffff168273ffffffffffffffffffffffffffffffffffffffff1614156120c3576040517f08c379a00000000000000000000000000000000000000000000000000000000081526004016120ba90613900565b60405180910390fd5b6120ce838383612920565b6120d9600082611dd2565b6001600360008573ffffffffffffffffffffffffffffffffffffffff1673ffffffffffffffffffffffffffffffffffffffff16815260200190815260200160002060008282546121299190613d1b565b925050819055506001600360008473ffffffffffffffffffffffffffffffffffffffff1673ffffffffffffffffffffffffffffffffffffffff16815260200190815260200160002060008282546121809190613c3a565b92505081905550816002600083815260200190815260200160002060006101000a81548173ffffffffffffffffffffffffffffffffffffffff021916908373ffffffffffffffffffffffffffffffffffffffff160217905550808273ffffffffffffffffffffffffffffffffffffffff168473ffffffffffffffffffffffffffffffffffffffff167fddf252ad1be2c89b69c2b068fc378daa952ba7f163c4a11628f55a4df523b3ef60405160405180910390a461223f838383612925565b505050565b6000600760009054906101000a900473ffffffffffffffffffffffffffffffffffffffff16905081600760006101000a81548173ffffffffffffffffffffffffffffffffffffffff021916908373ffffffffffffffffffffffffffffffffffffffff1602179055508173ffffffffffffffffffffffffffffffffffffffff168173ffffffffffffffffffffffffffffffffffffffff167f8be0079c531659141344cd1fd0a4f28419497f9722a3daafe3b4186f6b6457e060405160405180910390a35050565b61271081111561234f576040517f08c379a000000000000000000000000000000000000000000000000000000000815260040161234690613860565b60405180910390fd5b60405180604001604052808373ffffffffffffffffffffffffffffffffffffffff1681526020018262ffffff16815250600860008201518160000160006101000a81548173ffffffffffffffffffffffffffffffffffffffff021916908373ffffffffffffffffffffffffffffffffffffffff16021790555060208201518160000160146101000a81548162ffffff021916908362ffffff1602179055509050505050565b8173ffffffffffffffffffffffffffffffffffffffff168373ffffffffffffffffffffffffffffffffffffffff161415612463576040517f08c379a000000000000000000000000000000000000000000000000000000000815260040161245a90613920565b60405180910390fd5b80600560008573ffffffffffffffffffffffffffffffffffffffff1673ffffffffffffffffffffffffffffffffffffffff16815260200190815260200160002060008473ffffffffffffffffffffffffffffffffffffffff1673ffffffffffffffffffffffffffffffffffffffff16815260200190815260200160002060006101000a81548160ff0219169083151502179055508173ffffffffffffffffffffffffffffffffffffffff168373ffffffffffffffffffffffffffffffffffffffff167f17307eab39ab6107e8899845ad3d59bd9653f200f220920489ca2b5937696c31836040516125549190613823565b60405180910390a3505050565b600081600001549050919050565b606060008214156125b7576040518060400160405280600181526020017f30000000000000000000000000000000000000000000000000000000000000008152509050612717565b600082905060005b600082146125e95780806125d290613e68565b915050600a826125e29190613c90565b91506125bf565b60008167ffffffffffffffff81111561262b577f4e487b7100000000000000000000000000000000000000000000000000000000600052604160045260246000fd5b6040519080825280601f01601f19166020018201604052801561265d5781602001600182028036833780820191505090505b5090505b60008514612710576001826126769190613d1b565b9150600a856126859190613eb1565b60306126919190613c3a565b60f81b8183815181106126cd577f4e487b7100000000000000000000000000000000000000000000000000000000600052603260045260246000fd5b60200101907effffffffffffffffffffffffffffffffffffffffffffffffffffffffffffff1916908160001a905350600a856127099190613c90565b9450612661565b8093505050505b919050565b61273682826040518060200160405280600081525061292a565b5050565b6001816000016000828254019250508190555050565b61275b848484611fdd565b61276784848484612985565b6127a6576040517f08c379a000000000000000000000000000000000000000000000000000000000815260040161279d90613880565b60405180910390fd5b50505050565b6060600e80546127bb90613e05565b80601f01602080910402602001604051908101604052809291908181526020018280546127e790613e05565b80156128345780601f1061280957610100808354040283529160200191612834565b820191906000526020600020905b81548152906001019060200180831161281757829003601f168201915b5050505050905090565b60007f80ac58cd000000000000000000000000000000000000000000000000000000007bffffffffffffffffffffffffffffffffffffffffffffffffffffffff1916827bffffffffffffffffffffffffffffffffffffffffffffffffffffffff1916148061290957507f5b5e139f000000000000000000000000000000000000000000000000000000007bffffffffffffffffffffffffffffffffffffffffffffffffffffffff1916827bffffffffffffffffffffffffffffffffffffffffffffffffffffffff1916145b80612919575061291882612b1c565b5b9050919050565b505050565b505050565b6129348383612b86565b6129416000848484612985565b612980576040517f08c379a000000000000000000000000000000000000000000000000000000000815260040161297790613880565b60405180910390fd5b505050565b60006129a68473ffffffffffffffffffffffffffffffffffffffff16612d60565b15612b0f578373ffffffffffffffffffffffffffffffffffffffff1663150b7a026129cf611dca565b8786866040518563ffffffff1660e01b81526004016129f194939291906137ae565b602060405180830381600087803b158015612a0b57600080fd5b505af1925050508015612a3c57506040513d601f19601f82011682018060405250810190612a399190613158565b60015b612abf573d8060008114612a6c576040519150601f19603f3d011682016040523d82523d6000602084013e612a71565b606091505b50600081511415612ab7576040517f08c379a0000000000000000000000000000000000000000000000000000000008152600401612aae90613880565b60405180910390fd5b805181602001fd5b63150b7a0260e01b7bffffffffffffffffffffffffffffffffffffffffffffffffffffffff1916817bffffffffffffffffffffffffffffffffffffffffffffffffffffffff191614915050612b14565b600190505b949350505050565b60007f01ffc9a7000000000000000000000000000000000000000000000000000000007bffffffffffffffffffffffffffffffffffffffffffffffffffffffff1916827bffffffffffffffffffffffffffffffffffffffffffffffffffffffff1916149050919050565b600073ffffffffffffffffffffffffffffffffffffffff168273ffffffffffffffffffffffffffffffffffffffff161415612bf6576040517f08c379a0000000000000000000000000000000000000000000000000000000008152600401612bed90613a20565b60405180910390fd5b612bff81611d5e565b15612c3f576040517f08c379a0000000000000000000000000000000000000000000000000000000008152600401612c36906138e0565b60405180910390fd5b612c4b60008383612920565b6001600360008473ffffffffffffffffffffffffffffffffffffffff1673ffffffffffffffffffffffffffffffffffffffff1681526020019081526020016000206000828254612c9b9190613c3a565b92505081905550816002600083815260200190815260200160002060006101000a81548173ffffffffffffffffffffffffffffffffffffffff021916908373ffffffffffffffffffffffffffffffffffffffff160217905550808273ffffffffffffffffffffffffffffffffffffffff16600073ffffffffffffffffffffffffffffffffffffffff167fddf252ad1be2c89b69c2b068fc378daa952ba7f163c4a11628f55a4df523b3ef60405160405180910390a4612d5c60008383612925565b5050565b6000808273ffffffffffffffffffffffffffffffffffffffff163b119050919050565b828054612d8f90613e05565b90600052602060002090601f016020900481019282612db15760008555612df8565b82601f10612dca57805160ff1916838001178555612df8565b82800160010185558215612df8579182015b82811115612df7578251825591602001919060010190612ddc565b5b509050612e059190612e09565b5090565b5b80821115612e22576000816000905550600101612e0a565b5090565b6000612e39612e3484613b80565b613b5b565b905082815260208101848484011115612e5157600080fd5b612e5c848285613dc3565b509392505050565b6000612e77612e7284613bb1565b613b5b565b905082815260208101848484011115612e8f57600080fd5b612e9a848285613dc3565b509392505050565b600081359050612eb181614610565b92915050565b600081359050612ec681614627565b92915050565b600081359050612edb8161463e565b92915050565b600081519050612ef08161463e565b92915050565b600082601f830112612f0757600080fd5b8135612f17848260208601612e26565b91505092915050565b600082601f830112612f3157600080fd5b8135612f41848260208601612e64565b91505092915050565b600081359050612f5981614655565b92915050565b600060208284031215612f7157600080fd5b6000612f7f84828501612ea2565b91505092915050565b60008060408385031215612f9b57600080fd5b6000612fa985828601612ea2565b9250506020612fba85828601612ea2565b9150509250929050565b600080600060608486031215612fd957600080fd5b6000612fe786828701612ea2565b9350506020612ff886828701612ea2565b925050604061300986828701612f4a565b9150509250925092565b6000806000806080858703121561302957600080fd5b600061303787828801612ea2565b945050602061304887828801612ea2565b935050604061305987828801612f4a565b925050606085013567ffffffffffffffff81111561307657600080fd5b61308287828801612ef6565b91505092959194509250565b600080604083850312156130a157600080fd5b60006130af85828601612ea2565b92505060206130c085828601612eb7565b9150509250929050565b600080604083850312156130dd57600080fd5b60006130eb85828601612ea2565b92505060206130fc85828601612f4a565b9150509250929050565b60006020828403121561311857600080fd5b600061312684828501612eb7565b91505092915050565b60006020828403121561314157600080fd5b600061314f84828501612ecc565b91505092915050565b60006020828403121561316a57600080fd5b600061317884828501612ee1565b91505092915050565b60006020828403121561319357600080fd5b600082013567ffffffffffffffff8111156131ad57600080fd5b6131b984828501612f20565b91505092915050565b6000602082840312156131d457600080fd5b60006131e284828501612f4a565b91505092915050565b600080604083850312156131fe57600080fd5b600061320c85828601612f4a565b925050602083013567ffffffffffffffff81111561322957600080fd5b61323585828601612f20565b9150509250929050565b6000806040838503121561325257600080fd5b600061326085828601612f4a565b925050602061327185828601612f4a565b9150509250929050565b61328481613d4f565b82525050565b61329381613d61565b82525050565b60006132a482613bf7565b6132ae8185613c0d565b93506132be818560208601613dd2565b6132c781613f9e565b840191505092915050565b60006132dd82613c02565b6132e78185613c1e565b93506132f7818560208601613dd2565b61330081613f9e565b840191505092915050565b600061331682613c02565b6133208185613c2f565b9350613330818560208601613dd2565b80840191505092915050565b6000815461334981613e05565b6133538186613c2f565b9450600182166000811461336e576001811461337f576133b2565b60ff198316865281860193506133b2565b61338885613be2565b60005b838110156133aa5781548189015260018201915060208101905061338b565b838801955050505b50505092915050565b60006133c8601a83613c1e565b91506133d382613faf565b602082019050919050565b60006133eb603283613c1e565b91506133f682613fd8565b604082019050919050565b600061340e602683613c1e565b915061341982614027565b604082019050919050565b6000613431602583613c1e565b915061343c82614076565b604082019050919050565b6000613454601c83613c1e565b915061345f826140c5565b602082019050919050565b6000613477602483613c1e565b9150613482826140ee565b604082019050919050565b600061349a601983613c1e565b91506134a58261413d565b602082019050919050565b60006134bd603483613c1e565b91506134c882614166565b604082019050919050565b60006134e0602c83613c1e565b91506134eb826141b5565b604082019050919050565b6000613503601383613c2f565b915061350e82614204565b601382019050919050565b6000613526603883613c1e565b91506135318261422d565b604082019050919050565b6000613549602a83613c1e565b91506135548261427c565b604082019050919050565b600061356c602983613c1e565b9150613577826142cb565b604082019050919050565b600061358f602e83613c1e565b915061359a8261431a565b604082019050919050565b60006135b2602283613c1e565b91506135bd82614369565b604082019050919050565b60006135d5602083613c1e565b91506135e0826143b8565b602082019050919050565b60006135f8602c83613c1e565b9150613603826143e1565b604082019050919050565b600061361b601b83613c1e565b915061362682614430565b602082019050919050565b600061363e602083613c1e565b915061364982614459565b602082019050919050565b6000613661602f83613c1e565b915061366c82614482565b604082019050919050565b6000613684601283613c2f565b915061368f826144d1565b601282019050919050565b60006136a7602183613c1e565b91506136b2826144fa565b604082019050919050565b60006136ca603183613c1e565b91506136d582614549565b604082019050919050565b60006136ed601183613c1e565b91506136f882614598565b602082019050919050565b6000613710602b83613c1e565b915061371b826145c1565b604082019050919050565b61372f81613db9565b82525050565b6000613741828661330b565b915061374d828561330b565b9150613759828461333c565b9150819050949350505050565b6000613771826134f6565b915061377d828461330b565b915061378882613677565b915081905092915050565b60006020820190506137a8600083018461327b565b92915050565b60006080820190506137c3600083018761327b565b6137d0602083018661327b565b6137dd6040830185613726565b81810360608301526137ef8184613299565b905095945050505050565b600060408201905061380f600083018561327b565b61381c6020830184613726565b9392505050565b6000602082019050613838600083018461328a565b92915050565b6000602082019050818103600083015261385881846132d2565b905092915050565b60006020820190508181036000830152613879816133bb565b9050919050565b60006020820190508181036000830152613899816133de565b9050919050565b600060208201905081810360008301526138b981613401565b9050919050565b600060208201905081810360008301526138d981613424565b9050919050565b600060208201905081810360008301526138f981613447565b9050919050565b600060208201905081810360008301526139198161346a565b9050919050565b600060208201905081810360008301526139398161348d565b9050919050565b60006020820190508181036000830152613959816134b0565b9050919050565b60006020820190508181036000830152613979816134d3565b9050919050565b6000602082019050818103600083015261399981613519565b9050919050565b600060208201905081810360008301526139b98161353c565b9050919050565b600060208201905081810360008301526139d98161355f565b9050919050565b600060208201905081810360008301526139f981613582565b9050919050565b60006020820190508181036000830152613a19816135a5565b9050919050565b60006020820190508181036000830152613a39816135c8565b9050919050565b60006020820190508181036000830152613a59816135eb565b9050919050565b60006020820190508181036000830152613a798161360e565b9050919050565b60006020820190508181036000830152613a9981613631565b9050919050565b60006020820190508181036000830152613ab981613654565b9050919050565b60006020820190508181036000830152613ad98161369a565b9050919050565b60006020820190508181036000830152613af9816136bd565b9050919050565b60006020820190508181036000830152613b19816136e0565b9050919050565b60006020820190508181036000830152613b3981613703565b9050919050565b6000602082019050613b556000830184613726565b92915050565b6000613b65613b76565b9050613b718282613e37565b919050565b6000604051905090565b600067ffffffffffffffff821115613b9b57613b9a613f6f565b5b613ba482613f9e565b9050602081019050919050565b600067ffffffffffffffff821115613bcc57613bcb613f6f565b5b613bd582613f9e565b9050602081019050919050565b60008190508160005260206000209050919050565b600081519050919050565b600081519050919050565b600082825260208201905092915050565b600082825260208201905092915050565b600081905092915050565b6000613c4582613db9565b9150613c5083613db9565b9250827fffffffffffffffffffffffffffffffffffffffffffffffffffffffffffffffff03821115613c8557613c84613ee2565b5b828201905092915050565b6000613c9b82613db9565b9150613ca683613db9565b925082613cb657613cb5613f11565b5b828204905092915050565b6000613ccc82613db9565b9150613cd783613db9565b9250817fffffffffffffffffffffffffffffffffffffffffffffffffffffffffffffffff0483118215151615613d1057613d0f613ee2565b5b828202905092915050565b6000613d2682613db9565b9150613d3183613db9565b925082821015613d4457613d43613ee2565b5b828203905092915050565b6000613d5a82613d99565b9050919050565b60008115159050919050565b60007fffffffff0000000000000000000000000000000000000000000000000000000082169050919050565b600073ffffffffffffffffffffffffffffffffffffffff82169050919050565b6000819050919050565b82818337600083830152505050565b60005b83811015613df0578082015181840152602081019050613dd5565b83811115613dff576000848401525b50505050565b60006002820490506001821680613e1d57607f821691505b60208210811415613e3157613e30613f40565b5b50919050565b613e4082613f9e565b810181811067ffffffffffffffff82111715613e5f57613e5e613f6f565b5b80604052505050565b6000613e7382613db9565b91507fffffffffffffffffffffffffffffffffffffffffffffffffffffffffffffffff821415613ea657613ea5613ee2565b5b600182019050919050565b6000613ebc82613db9565b9150613ec783613db9565b925082613ed757613ed6613f11565b5b828206905092915050565b7f4e487b7100000000000000000000000000000000000000000000000000000000600052601160045260246000fd5b7f4e487b7100000000000000000000000000000000000000000000000000000000600052601260045260246000fd5b7f4e487b7100000000000000000000000000000000000000000000000000000000600052602260045260246000fd5b7f4e487b7100000000000000000000000000000000000000000000000000000000600052604160045260246000fd5b6000601f19601f8301169050919050565b7f45524332393831526f79616c746965733a20546f6f2068696768000000000000600082015250565b7f4552433732313a207472616e7366657220746f206e6f6e20455243373231526560008201527f63656976657220696d706c656d656e7465720000000000000000000000000000602082015250565b7f4f776e61626c653a206e6577206f776e657220697320746865207a65726f206160008201527f6464726573730000000000000000000000000000000000000000000000000000602082015250565b7f4552433732313a207472616e736665722066726f6d20696e636f72726563742060008201527f6f776e6572000000000000000000000000000000000000000000000000000000602082015250565b7f4552433732313a20746f6b656e20616c7265616479206d696e74656400000000600082015250565b7f4552433732313a207472616e7366657220746f20746865207a65726f2061646460008201527f7265737300000000000000000000000000000000000000000000000000000000602082015250565b7f4552433732313a20617070726f766520746f2063616c6c657200000000000000600082015250565b7f4d696e7420616d6f756e74206d757374206265206c657373207468616e206f7260008201527f20657175616c20746f206d617820737570706c79000000000000000000000000602082015250565b7f4552433732313a206f70657261746f7220717565727920666f72206e6f6e657860008201527f697374656e7420746f6b656e0000000000000000000000000000000000000000602082015250565b7f4d7573742073656e64206174206c656173742000000000000000000000000000600082015250565b7f4552433732313a20617070726f76652063616c6c6572206973206e6f74206f7760008201527f6e6572206e6f7220617070726f76656420666f7220616c6c0000000000000000602082015250565b7f4552433732313a2062616c616e636520717565727920666f7220746865207a6560008201527f726f206164647265737300000000000000000000000000000000000000000000602082015250565b7f4552433732313a206f776e657220717565727920666f72206e6f6e657869737460008201527f656e7420746f6b656e0000000000000000000000000000000000000000000000602082015250565b7f45524337323155524953746f726167653a2055524920736574206f66206e6f6e60008201527f6578697374656e7420746f6b656e000000000000000000000000000000000000602082015250565b7f4d696e7420616d6f756e74206d7573742062652067726561746572207468616e60008201527f2030000000000000000000000000000000000000000000000000000000000000602082015250565b7f4552433732313a206d696e7420746f20746865207a65726f2061646472657373600082015250565b7f4552433732313a20617070726f76656420717565727920666f72206e6f6e657860008201527f697374656e7420746f6b656e0000000000000000000000000000000000000000602082015250565b7f596f752063616e2774206d696e742061706520746f2061646d696e0000000000600082015250565b7f4f776e61626c653a2063616c6c6572206973206e6f7420746865206f776e6572600082015250565b7f4552433732314d657461646174613a2055524920717565727920666f72206e6f60008201527f6e6578697374656e7420746f6b656e0000000000000000000000000000000000602082015250565b7f20657468657220746f2070757263686173650000000000000000000000000000600082015250565b7f4552433732313a20617070726f76616c20746f2063757272656e74206f776e6560008201527f7200000000000000000000000000000000000000000000000000000000000000602082015250565b7f4552433732313a207472616e736665722063616c6c6572206973206e6f74206f60008201527f776e6572206e6f7220617070726f766564000000000000000000000000000000602082015250565b7f4d696e74696e6720697320706175736564000000000000000000000000000000600082015250565b7f546f6b656e204944206d757374206265206c657373207468616e20746865207460008201527f6f74616c20737570706c79000000000000000000000000000000000000000000602082015250565b61461981613d4f565b811461462457600080fd5b50565b61463081613d61565b811461463b57600080fd5b50565b61464781613d6d565b811461465257600080fd5b50565b61465e81613db9565b811461466957600080fd5b5056fea2646970667358221220164164fcec6511ecd24f9e6723a14422af95a9287738e1ee94d0f4b363db7f7164736f6c63430008020033",
  "linkReferences": {},
  "deployedLinkReferences": {}
}